:20000000003C022005AA0100ADB60100ADB60100ADB60100ADB60100ADB60100ADB601007A
:1C002000ADB60100ADB60100ADB60100ADB60100ADB60100ADB60100C9D00000D3
:04003C0000000000C0
:2000400090B0DFF8D87B1A2000210024B8471B200021B8471C200021B84718F0D3FD0AF02F
:20006000D7FFDFF8BCAB0AF102000AF1040117F0F7FA0AF114001DF0C3FADFF8A86BDFF8DD
:20008000A81BCAF808000AF11C0041F2883200230690CDE9004617F0DFFBDFF8900BDFF8F0
:2000A000901BDFF8905B0022152300901020A847DFF8841B1020002202234FF00208A847A5
:2000C00010F0C2FB1C2001214FF00109B8471AF029FA1A200121B847DFF8601B1020012290
:2000E000A847DFF85C1B10204FF0FF32A8471BF029FA4FF0FF3017F09FFD0320DFF8447B3C
:200100008DF820908DF8248001218DF8270004208DF8260005208DF82C00EB480A9008AA8F
:200120000020B84709AA01200121B8470DF1270202200121B8470DF1260203200121B847D7
:200140000AAA04200521B84706F10C001CF04CFFDFF8F41A06F11C021020A8479AF802108B
:20016000DFF8E87A5020B847DFF8E41A02461020A8479AF802105020B847DFF8D81A024677
:200180001020A847DFF8D01A1020FB2240F64803A847DFF8C81ADFF8C82A1020A847DFF84A
:2001A000C40A13F0BBFF4FF6FD7018F0D5FA9AF802105020B8470346DFF8AC0ADFF8AC1AA5
:2001C0000422CDE900801020A847DFF8A40AC0211CF0B0FFDFF8980A4FF6FF71C02C02D097
:2001E00001531834FAE74FF0FF30002117F0ACFCB060DFF8804ADFF8800A00214FF0FF329D
:20020000206020461BF0A2FDB068DFF8703A214605221AF095FDDFF8689AB068DFF8643A25
:20022000002299F800101CF0DAFD0AA8DFF8CC5A02300790DAF8040000214FF040424FF0A9
:20024000FF330EF0C5FE0028F4D0834600200DF12701089009A808AA1AF02DF9002840F02D
:200260003983BDF82400102840F02C839AF802009DF82710814240F02583DDF820804FF61D
:20028000FF71B8F80000884200F01E83C0B2912800F0D980B02800F00781D02840F0128362
:2002A00098F80200072800F22681DFE810F0080063016301630163016D01BF01270298F89E
:2002C0000100002840F0FE820020ADF82B0018F8060F8DF82800B8F8010098F8031098F89F
:2002E000042098F80530ADF829008DF82D108DF82F308DF82E20002008210AAA0FF094F846
:20030000DFF8200999F80010DFF8DC390022013180681DF0CDFB0AF10100DFF8D019DFF8AC
:20032000D029DFF8D03900901DF0CBFB000640F073840B209AF80120294600230090DFF87D
:20034000B80901901DF0BDFB000640F065841C209AF80120294601230090DFF8A409019040
:200360001DF0AFFB000640F057849AF80120DFF894191020922313F0E1FC00209AF80120E6
:20038000DFF85819002300901DF09BFB000640F04384DFF85819DFF85829DFF86C39102076
:2003A000CDF800A013F0CAFC000640F035840B209AF80020294600230090DFF85009019060
:2003C0001DF07FFB000640F027849AF80020DFF834191020922313F0B1FC00209AF8002078
:2003E000DFF8F818002300901DF06BFB000640F01384DFF8306899F800704046B46818F009
:20040000C5FFDFF80C19DFF80C390022CDE90010B81DC1B220461CF0E2FC17F0F3F9701C01
:20042000012140F6B8320023CDE90010DFF8F8170AF1400017F010FADFF838080221002203
:200440001BF084FC3EE298F801003E2864D00F2875D0102800F089800E2840F03382D8F82E
:200460000810B8F8042042F2300308789A4200F0608141F205439A4240F02482002840F077
:200480002182B1F8010091F903801BF0FFFE0828C0F0A481DFF88C0799F80010DFF81438C7
:2004A0000022013180685FE398F804007F280DD07E2819D1DFF86C0799F8001098F8082073
:2004C000DFF8F8370AE000BF01020304DFF8540799F80010B8F80820DFF8DC3701318068B4
:2004E000009200221DF0E4FA98F8041008F108001DF04AFFE6E111283CD1B8F80400ADF8FC
:20050000280098F80E008DF83200B8F80A00002800F0468100204FE198F802000C2840F07F
:20052000D181DFF8000798F8032099F800108068002A00F048810131DFF850377CE1B8F8CF
:20054000040042F23201884240F0BC8198F80210DFF8D0061A2940F0168199F80010806817
:20056000DFF844370022013115E1082000210CF0FBFFA7E1DFF8AC0699F80020511C02323D
:200580008068C9B2D2B2B6E0DFF84417DFF8D026102013F0D3FBC1B20446DFF8880699F82B
:2005A0000020DFF834370091911C806800221DF07FFA98F80100002840F06881B8F80A601F
:2005C000002000F11801D82900F04581DFF8A026105A4FF6FF7290420846F2D1DFF890062D
:2005E0004718032027F8186C1DF0C8FA002847F8140C00F02D810821017057F8140CA0F841
:20060000016024201DF0BAFA002847F8100C00F01B8157F8141C01220023CDE90021DFF8F2
:20062000081641F2707217F017F911E1DFF8A016DFF82C26102013F081FB99F80010DFF8A1
:20064000E4650446DFF88C3600220131B0681DF02FFA99F80010B068DFF87C36E7B20022CF
:20066000009702311DF024FAB8F8048040461BF00DFE082827D0DFF8F815044600EB400035
:2006800001EBC0008668AEB130461DF0DDFA10B130461DF0DDFA30461DF0FCFA30461DF0F0
:2006A00067FADFF8CC1504EB440001EBC00040681DF05EFA40461AF0E5FF404618F026FE0F
:2006C000404618F049F847B906981DF0C1FADFF8A405022101221BF039FBDFF800661CF097
:2006E0005BFD1CF027FEDFF83C0599F80010002203318068C9B21DF035F9E3E0B8F804202D
:20070000DFF8BC1510200AAB13F018FBDFF81405866899F80000871C98F80300C8B1079879
:2007200098F8024018F032FEDFF89835CDE9004015E0002840F0C680DFF8E804CB780979FA
:2007400099F80020CDE90031D11D8068DFF85C3509E2079818F01AFEDFF86C350090F9B266
:20076000304600221CF03BFB0AF10C001BF0C6FB002800F0A7800446008910F0FFFD204658
:200780001DF0F6F99EE099F8002000918068DFF81435511C00221DF08BF942F232004FE0E0
:2007A0000020ADF82E00D8F80600CDF82A00B8F80C00ADF830000120DFF810158DF833001B
:2007C00010200AAA7CE098F80730DFF8C424012B2ED0022B25D1DFF8BC2429E05FFA88F273
:2007E00004467F2A00F0B081DFF8840404EB440C00EBCC060520737C591C717406F10C0118
:20080000CA54727CB2FBF0F303EB8303D21A002372740022052A00F08C818856013203442D
:20082000F8E7DFF87824032BDFF86C3408BF1A460231DFF86C34009200221DF039F90C20D1
:20084000414611F0C9FD3DE057F8140C1DF090F9012007F8040CDFF8CC0399F80070866863
:2008600008F1040018F092FD0090781CDFF870340022C1B230461CF0B2FADFF8F80301218E
:2008800002221BF063FA06981DF0E0F914F0F80F0AD1DFF89003807830B9DFF840641CF090
:2008A0007BFC1CF047FD0DE0DFF838449AF800201020214613F042FA9AF80120102021465F
:2008C00013F03CFADDF82080B8F1000F02D040461DF0DCF8DFF84C835FEA4B007FF5AAAC75
:2008E000DAF808001CF0BEFF00287FF4A3ACDAF808001CF091F90028F2D004460078013816
:20090000082800F20E81DFE800F005412F51156976637900606800780138052800F20181BF
:20092000DFE810F00600F200FF00F600F800FC000120EAE067682E46D34D787A50B199F83D
:200940000010D8F80800DFF8D4330022009503311DF0AEF8FA88DFF8C81310200023009517
:2009600013F0ECF93546DCE06768386810286BD0022800F07680012840F081807A6899F899
:200980000010D8F80800DFF8C03370E060680078010743D4C00640F1C48015201CF0DEFAA2
:2009A000002840F0BE8018F031FDBAE061680878032800F2B6800979DFE800F0027C689086
:2009C00099F80010D8F80800DC4B0022033123E06068B0F8010010F0D1FCA6E002200AA985
:2009E00018F0B4FC002840F09C80032001210AAA12F0B8FA95E016F005FF92E06068478896
:200A000038461BF043FC082810D399F80010D8F80800A84B00220131C9B272E014201CF02E
:200A20009DFA00287DD11AF073F97AE0904900EB400001EBC000C07D002872D0B649102053
:200A40003A4613F07BF96CE07A6899F80010D8F80800137852880431C9B2CDE90032B84BF8
:200A600009E07A6899F80010D8F80800B54B12780431C9B2009200221CF0B1F93868B0F14D
:200A8000004F4ED078681DF073F84AE00029D8F8080001BF99F800100331C9B200220FBF66
:200AA000A34B99F800200091D11C1EBFC9B200229E4B26E00029D8F8080001BF99F800104E
:200AC0000331C9B200220FBF9B4B99F800200091D11C1EBFC9B20022964B12E00029D8F81C
:200AE000080001BF99F800100331C9B200220FBF8D4B99F800200091D11C1EBFC9B200226D
:200B0000884B1CF06CF90CE0022014F0E5F908E0042000E0052014F0FFF802E006201BF082
:200B2000BBF8606808B11DF023F820461DF020F8D6E619B2052091FBF0F1304610F8132FF5
:200B4000059000F8011C92B1494904EB440099F80020574B01EBC00090F912103148CDE90A
:200B60000081511D806800221CF0A2FFAAE649B211F11E0F0ADB307D40F002000228E3D074
:200B800000204FF0010E022202210AE011F1280F09DB307D0228D7D30020012201214FF074
:200BA000010E002312E011F1320F09DB307D0028CAD001204FF0000E04210622012305E0B7
:200BC000002002224FF0000E042102230290374617F8150F904202D1B07D0128B4D8244805
:200BE00004920A46CDF80CE030F83C0019F0C0FA059A012004991070387888421CBF0020E5
:200C0000B075039808B139709EE7029808B1062000E00220387097E71CF02CFAB5D20100D2
:200C2000FC2400200C290020F5980100282A00204D6401003D3D0100CD940100DDBD0100F5
:200C40004D9B0100652F010049BE010089B00100D96C02102D6D02100D520210397F011097
:200C6000A7FD0100BFB90100342C002035BD0000803E002040490020A8FD010041EC00008A
:200C8000A54A0020BAFD010040E201001CFE010041FE010044FE010047FE01004DFE01003A
:200CA0002FFE0100FEFD0100CFFD01002FFF010012FF010018FD010005FF0100F5FE0100ED
:200CC000F9DC0110C7FE0100B0FE0100D95701104D9501009BFE01007DFE0100ED7401100D
:200CE0008BFE01006502021062FE01009901011021B40100BC290020A82B002085E90000A9
:200D0000F42900201DEF0110D8290020B32B00207AFE01006EFE01000D2B02100C0002001C
:200D20009DA90100F7FF0100E5FF0100CFFF0100BCFF0100ABFF01009BFF01008BFF010034
:200D400069FF010055FF010042FF010038B586B004468DF805104FF6FF720120ADF80220EE
:200D6000090ADFF8D45AADF8000002238DF806108DF8043069462A7820461DF001FB16283F
:200D800003D1297820461DF0F7FA07B030BD3EB504000D461ED0DFF8A40A006822461DF03C
:200DA000E7FAFF2815D000200090002301AA294620460FF05DFE60B99DF8040000F075F989
:200DC000C00606D59DF8040000F06FF910F0040000D001203EBDFEB5164615244FF6FF7293
:200DE00090420D4615D100208DF80400DFF8487A9DF80400F97988421AD23246294600F00E
:200E00003AF800B100249DF80400401C8DF80400EEE71DF0A9FA50B100F0A7FB40B99DF8A7
:200E200004003246294600F026F8002400E014242046FEBD7CB50D46044606214C4316467C
:200E400000F080F8A8B900F078F890B99DF80700002E14BF054320EA0505E9B2814206D0F3
:200E60008DF807506A460821A0B21AF00FFD012076BD002076BD2DE9FC410646344606236C
:200E80005C438846154600F05DF8002852D100F054F800284ED1DFF8A079387A80001CF049
:200EA00049FB040002D100F02BFA43E0397AE03689062246090EB0B21AF0D4FC002835D19E
:200EC000204600F058F85FEA08000ED13A7A9206120E002120461BF0B0FB38BB3A7A92005A
:200EE000002120461CF0F8F816E0214600F030F858B9280004D02146002000F029F810B98C
:200F000000F01EFC16E0A0F800808178A9420DD085700DB900210180204600F02CF8397A6E
:200F200089062246090EB0B21AF0B0FC00F008FC012000E00020BDE8F6810622FF21684664
:200F40001BF07BBB20346A460821A0B21AF08ABC70B5DFF8E4381D7A002200E0521CD4B2DC
:200F6000AC4206D231F824608642F7D101EB840070BD002070BD10B50021DFF8BC280AE0F9
:200F800030F82130DB4320F8213000EB8103491C9C78E4439C70137A9942F1DB10BD2DE91F
:200FA000FE4FDFF894480646207A0F4691469B4680001CF0BFFA5FEA000803D100F0A0F94B
:200FC0000A206CE00C9D0297B246062717FB0AF7029A07F12000082100F064F88DF804006F
:200FE000304600F09FF8227A9200FF2140461CF073F89DF804000090E036217A89064246B8
:20100000090EB0B21AF042FC009E02990643206A082200EBCA001CF069F8BDB102998879AD
:2010200000232A4600F001001DF09AF900281CBF9DF93C00002803D0DFF804180120087030
:2010400007F123002A4600F02CF806435FEA090205D007F121001C2100F024F806435FEA8B
:201060000B0205D007F122001C2100F01BF806430D9A62B107F1240000F013F80546253773
:201080000EAA0421B8B21AF001FC05432E43A07D08B100F09FFA40461CF054FAF0B2BDE8C3
:2010A000FE8F102180B21AF0F1BBE0B50623584320306A46082180B21AF0D4FB10B99DF89F
:2010C00007000EBD00200EBDDFF86C07007808210EF088BC38B50025DFF85C4719E0206A17
:2010E000062313FB05F300EBC5022033082198B21AF0B8FB58B1206A0622FF2100EBC50001
:201100001BF0EAFF206A00EBC5010022CA716D1CEDB2E1798D42E2DBA07D10B1BDE8314041
:2011200058E231BDF8B5DFF81017DFF81837C9791E680C460A4600E02A46D5B23DB1551E14
:20114000D2B2324412F8017C8742F5D12C46E4B220464D1E07E01718165C7F7817541A683A
:201160000244401C5670A8421A68F4DBAC4204DABDE8F84005201AF089BBF1BD70B50024B9
:20118000DFF8B45600E0641CE879E3B283420BD22B6AE6B20622FF2103EBC6001BF04DFAFB
:2011A0000028F0D0E0B270BDDFF89C26117839B1DFF8900601680C78204600F013F820465B
:2011C00070BD38B500200024DFF86C5603E0E0B200F008F8641CEA79E1B2914201D2010096
:2011E000F5D032BD2DE9F84F83465D46062313FB05F58EB005F1200701AA0821B8B21AF09E
:2012000031FB002873D10622FF2101A81BF015FA00286CD1DFF82066307A80001CF08AF9B0
:201220005FEA000903D100F06BF80A2061E01C22FF2103A81BF050FF327A9200FF2148467B
:201240001BF04AFF05F123040AAA1021A0B21AF009FB60B91022FF210AA81BF0EEF930B9E0
:201260009DF80A0001A900F001001DF075F8082200F042F801AA0821B8B21AF007FB8DF897
:20128000000003AA05F1210000F03DF8074605F1220003AA00F037F8804603AA1021A0B23E
:2012A0001AF0F4FA044605F1240003AA102100F02BF88246253503AA0421A8B248EA070753
:2012C0001AF0E4FA2743317A9DF800504AEA0707074389060BF1E0034A46090E98B21AF037
:2012E000D5FA074348461CF02DF93D4300E0002528460FB0BDE8F08FFF2101A81BF0ECBEC1
:2013000004201AF037B81C2180B21AF0BFBA2DE9F84187B0FF208DF80000DFF81C55E879EB
:201320001CF008F9040003D1FFF7EAFF0A2030E01022FF2103A81BF0CFFEEA79FF212046F1
:201340001BF0CAFE0622FFF7D7FF03AA102102201AF09CFA064603AA102103201AF096FA3F
:2013600006436A46012104201AF090FA0746E979224605201AF08AFA054601AA062106208D
:201380001AF084FA804600F0DBF93E432E4348EA060008B0BDE8F081DFF89C144088097873
:2013A0001AF0FCB9F0B5A9B006460D4614461CF0DBFF08B91420ACE0A422002168461BF070
:2013C0008BFEADF800600DF12607DFF86C64F078F17B8DF80400307C8DF8A000279861F36C
:2013E0000000F17B27908A074CBF0222002220F0020010432790CA064CBF4FF4807200229A
:2014000020F48070104327908A064CBF4FF40072002220F40070104327904A064CBF4FF420
:201420008062002220F480601043279049074CBF0421002120F0040008432790707C0228DD
:201440000CBF0120002078741CF082FF412807DB707C00B108209DF8991008438DF8990050
:20146000F07CB8B10121B974202206F188010DF139001BF03BFE202206F1A8010DF15900D2
:201480001BF034FE202206F1C8010DF179001BF02DFE00E0B874707B8DF8050090B1DFF8C7
:2014A000AC73102207F110010DF106001BF01EFE9DF89900082805D1102239460DF11600AE
:2014C0001BF014FE307B8DF8260030B11022DFF880130DF127001BF009FE307948B1022D14
:2014E00018BF032D03D1279840F002002790012100E000219DF899000143B0788DF899107E
:2015000000B1042001438DF89910684621461CF01BFF29B0F0BD2DE9FC41154615244FF697
:20152000FF72904288460ED10027DFF80C63F179F8B2884216D22A464146FFF77BFC00B173
:2015400000247F1CF3E71CF00FFF50B100F00DF840B99DF804002A464146FFF76BFC0024D8
:2015600000E014242046BDE8F681002100910023417901AA01F00101801D0FF079BA70B5B0
:2015800004460D4606204543082B88B0164603D1300758BF223500D521351C220021FFF740
:2015A000ACFE01AA1C21A8B21AF05CF980B99DF81E00C01F0A280BD29DF830000090F208B7
:2015C00001AB02F0010206F0010120461CF0B8FE08B070BD38B51CF0AFFE0024964D0FE0C9
:2015E000286A0622FF2100EBC4001BF026F828B9286A00EBC40100201CF09AFE641CE4B23C
:20160000E8798442ECDB31BDF0B5924C0646606885B04FF6FF7538B9009402238E4A294678
:2016200001201CF081FE6060616821B30222FF2002920023039001930DF112072288009728
:2016400004AB304606F002FE68B99DF810009DF8111000EB012290B228B16068418992B2F4
:201660003046FFF7B8FB22886068002329461CF057FE606008B9012000E0002005B0F0BDE2
:201680003EB50C46002501460095002301AA20460FF0EEF938B99DF80400FFF706FDC006A1
:2016A00001D401203EBD00203EBD2DE9F0416B4F3C6806468846154603E02089B04224D092
:2016C0002468002CF9D10C201BF034FF040019D0268184F80A8000202060E07245B1082173
:2016E00028461BF06DF9606018B900F029F80AE06060396811B93C6004E0014608680028F5
:20170000FBD10C600CB9152018E01CF005FE08B1002013E00120E0722A4641463046FFF7EE
:2017200041FE04464448C06900281CBF4368002B03D000220021304698472046BDE8F081AB
:2017400020461BF0FFBE38B505464448046803E02089A84204D02468002CF9D1012032BD4F
:20176000E07A012807D100F05CF820B13248007804210EF037F9E17A491CE1722846C9B2B8
:2017800000F002F8002032BD38B5022904462A4D02D003290DD01EE042F6C921FFF7D6FAB6
:2017A00002001CBFE869002818D04368B3B105210CE042F6A621FFF7C9FA01001CBFE969E4
:2017C00000290BD04B684BB102460421204601B0BDE830401847BDE8324000E031BD10B5B4
:2017E0001E4A1468002101E0214624686CB123898342F9D1206800290CBF1060086060689C
:2018000008B11BF09FFEFFF79BFF002010BD024604201249096819B10B899342FAD1C87A72
:2018200070470E48006828B1006818B1C17A0029FAD1704700207047041E0020680F002093
:201840009E4A0020304A00209D4A0020A8470020D8470020DC490020C4100200344A0020D8
:201860002DE9F04385B0064600208946009090461C46B179002304AA30460FF0F9F820B1B5
:20188000FFF77CFC8DF810001BE0D4B19DF810300620434323336A46102198B219F0E2FFD9
:2018A00078B91022FF2168461AF0C7FE48B9B079314600F001001CF04FFD10B119490120FA
:2018C0000870194F9DF81000F979884227D201200390009443460C980D990E9D0190029164
:2018E0004A469DF810003146FFF759FB044655B1397A9DF810008906E0302A46090E80B2F2
:2019000019F0C4FF0443200005D09DF81000FFF769FCFFF7DFFB204605B0BDE8F083152087
:20192000FAE700BF9E4A0020041E00202DE9F04F054687B0A978DFF8D466002710294FF015
:20194000060A3CD8DFE811F011005E035E035E035E033C00CF005E035E03C102150100015F
:2019600013035E039702D90256036878002826D11CF0CEFC04461CF0C7FC05461CF0C0FC22
:201980008DF8000022461021022019F07FFF2A461021032019F07AFF6A460121042019F03B
:2019A00075FF9DF80000012818BF032807D101201CF0A2FC02460621062019F067FF21E348
:2019C00068780028FBD195F80CB06C8900900023E97801AA01F00101281D0FF049F8002896
:2019E0004FF0010875D19DF80400FFF75EFB8146BBF1080F307A08BFB84680001BF09AFD56
:201A0000050003D1042019F0B5FCFBE270789DF8041002280CBF0120002000905B464A46AA
:201A20002046FFF7ACFD1422002102A81BF054FB9DF804001AFB00F0243002AA102180B245
:201A400019F010FFB0B91022FF2102A81AF0F5FD80B99DF804001AFB00FA0AF1250306AA59
:201A6000042198B219F0FEFE02AA09F0010120461CF03EFC317A9DF804008906E0302A464C
:201A8000090E80B219F0EEFE98B92846FFF773FABA4609E005EB8000018819B182782046DA
:201AA0001AF084FC0AF1010A317A5FFA8AF08842F0D3B07A30B95FEA897003D5317820464F
:201AC00019F06CFE9DF80400FFF72CFB28461BF039FD7078022805D1B8F1000F02D0204656
:201AE00015F01EF88EE2A888FFF779FE1CF0FCFB0028F7D1F07D012808D1FFF762FBF2799E
:201B0000706AF77500211BF0E7FA17E0307E012803D1FFF7FCFB377610E000240AE0706A5E
:201B2000E5B2415D012904D1E0B2FFF75BFB716A4F55641CE0B2F1798842F0D350201AF091
:201B4000E5FCFFF7C7FA5DE21CF0E6FB00280CD0F06900281CBF0468002C07D028690090D1
:201B60006B7B2A7B6989E81CA0474AE2688901213DE268780024002840F0DA80A879C10700
:201B800040F1D6800822002105A81BF0A5FAA8881CF0EAFB040076D06F694FB3062200218E
:201BA00007F111001AF049FD68B30622002138461AF043FDD0B9387C00F001084FF0000922
:201BC00009F1010987F811900020009000230022414607F111000EF04BFF00285FFA89F01A
:201BE00002D10028ECD101E000280CD1002068610622607900F001008DF81A00A11D05A862
:201C00001BF074FA1FE06F69EFB1387C00F001008DF81A00062207F1110105A81BF066FA46
:201C20006079012805D10622A11D04F10C001BF05DFA062207F11101A01D1BF057FA387C84
:201C400040F002006071A879410720794CBF40F0020000F0FD002071A9790A0754BF00F08E
:201C6000DF0040F020002071A9799DF81B00890801F0010108438DF81B00A9790A074CBF25
:201C80000821002108E0FFF7CCFD0028ECD0307804210DF0A7FEE7E708438DF81B004FF008
:201CA000FF096969DFF86883FF241E2731B3102268461BF01BFA102168461CF011FB4FF006
:201CC000000BDFF8509303E00BF101005FFA80FB99F80000834510DAD8F8001017FB0BF05B
:201CE0000A5CFF2AF0D0084400F10D01102268461AF058FE0128E7D15C46A14600200090F0
:201D000000239DF81A1004AA05A80EF0B1FEB9F1FF0F57D0342855D1707D00B3012851D18D
:201D2000A88805211CF0D8FA0124A888FFF757FDF06900281CBF4368002B0FD06A78A888AD
:201D4000012198476878002808D1A879C10705D5F369A88822465C680321A0474AE1D8F820
:201D60000000002117FB09F90091002310F80910401C04AA48440EF07BFE18BB9DF81000D4
:201D8000FFF730FAF0B9FFF7A5F9FFF7F7F98DF81000E968686900290CBF00220A6900239D
:201DA00003930292019100902B69AA689DF8100005A9FFF7F4F80446A888FFF725FC20004B
:201DC00047D14CE00020009000239DF81A1004AA05A80EF04DFE20B1FFF7D0F98DF8100064
:201DE0001AE06869C0B19DF810001AFB00FA0AF123036A46102198B219F034FD60B9102222
:201E0000FF2168461AF019FC30B99DF81A0005A900F001001CF0A0FA9DF81000F17988421F
:201E200027D2E968686900290CBF00220A69002303930292019100902B69AA689DF8100044
:201E400005A9FFF7ACF80446A888FFF7DDFB200005D09DF81000FFF7C5F9FFF73BF920005A
:201E600008D1707A0028A8887FF460AFFFF76BFC5EE7152459E7687806281BD1A8881CF074
:201E800073FAB8B1317D012904D013D3032907D00CD30FE04179A8880022FFF706FC09E01C
:201EA0000022002140F2094004F0D6F9A88805211CF012FAF06900281CBF4368002B03D02E
:201EC0006A78A888022198479BE000970023E97801AA01F00101281D0EF0CAFD0028F3D1C4
:201EE0009DF804001AFB00FA0AF1250305F10C02042198B219F0CAFC83E0F06900281CBF16
:201F00004368002B03D0A888002200219847707810B9A88805216AE0A8881CF025FA040016
:201F200070D0A87AC10712D5009700236179002201F00101A01D0EF09BFD00281EBF6079B6
:201F40000028012803D0E868C0F3402028B1707C022807D1A87A010704D4A88803211CF0D1
:201F6000B7F94FE06179A88805F1080227E02F7BAD8828461CF0F8F9040042D01CF0CCF940
:201F800000283ED100900023617901AA01F00101A01D0EF06DFD28BB9DF80400FFF785F8CB
:201FA00007F00C07042F11D0082F0BD00C2F0FD100F0090109290BD0617900222846FFF76F
:201FC00074FB1EE010F0090F02D1F5E7C107F3D501220092A37C9DF8041002462846FFF714
:201FE000CEFA0EE070780028E6D1052128461CF06FF906E0FFF715FC18B1307804210DF0DC
:20200000F1FC0127384607B0BDE8F08F041E0020680F0020984A00202DE9F84F012018F0F1
:2020200089FC012816D1DFF87476387800211CF04BF9040004BF002019F09CF900202072F2
:20204000201D0FF00DFF05F03BFB050003D181201CF036F91EE301206871072011F037FD01
:20206000DFF83CA6DFF83C269AF80100401C8AF80100A879A0724020397811700EF02AFB14
:202080002860616D4A78206DD10620D5816C0A681179032908D0816C0868007903280CBF16
:2020A0000120002019F066F9206D816C0A6890F86C0002F1080601281CBF002019F05AF916
:2020C000216D486F296800F5B060C8604AE0416F0A681179032908D0416F0868007903285F
:2020E0000CBF0120002019F045F9206D416F0A6890F8A00002F1080601281CBF002019F088
:2021000039F9206DB5F87421D0F8A8302F68DFF89805DFF89815FB6096F826E0BEF1030FDF
:202120001BD8DFE80EF002050E1103F5B06301E003F53473FB6005F59A720188118702882A
:202140000EE003F5355301E003F6B873FB6005F59A72088810870A8802E003F5B063FB60AA
:20216000A5F8742106222868DFF84475C168DFF8449501F5B471C160B11C3078C0F3801018
:2021800085F82E0105F12C0805F594701AF0AEFF042206F10E0105F124001AF0A7FF38681E
:2021A00095F806C000F10C03042206F10E0103EB4C101AF09BFF3868AB7900EB4313032288
:2021C00006F1120103F110001AF090FF707D88F80200022206F1160105F130001AF086FF02
:2021E000022206F1180105F132001AF07FFF022206F11A0105F134001AF078FFB8F8080062
:202200006884022206F11C0105F136001AF06EFF98F80200B8F80A10400088F802000901CF
:20222000B8F80400A8F80A104000A8F8040089B2B8F806004000A8F8060003046A8C521C0A
:20224000DB0B5A438A4201D280B230B999F8000080210DF0C7FB3B2123E105F12E0128465D
:202260001CF02AF80520A88128461CF021F8052206F11E0105F161001AF038FF96F82300C9
:20228000400988F800001CF00FF8688205F59A72618D401AD08005F1610196F82300DFF8FA
:2022A000186400F01F0088F80F0028461BF0F8FF616D4A78206DD1064CBF816C416F0023D5
:2022C00008680021017141F62101AA79306852018152A97900EB41125380A97900EB411030
:2022E0004360616DDFF8D4034A78D1060DD5DFF8D0138A7851060AD5DFF8C823138841F2C2
:202300000A418B4208BFDFF8C003C5F89C01D5F89C11284688473268A97902F10E03490129
:2023200058543068A97900EB41120020D0733168A87901F10E024001115C88F80D10606DC2
:202340004178CA061AD595F8960108B919F012F83068A97900EB411295F89601411E11740D
:202360003268A87902EB401100224A743068AA7900F1120152010020885229E03168A879B5
:2023800001EB4012206D90F8441011743268A87902EB4011206D90F845204A743168A87926
:2023A000CA4A01EB401110780DF05CFF226D92F8443005F5CB71012003F0030398400870BF
:2023C000226D92F84400800814BF012002200871A87931683B68400101F114020344135039
:2023E0003068A979DFF8E8B200EB4112B9489061DBF814000078C107DBF8141009784CBFD8
:202400001F200F208A07DBF81410097848BF40F020004A07DBF81410097848BF40F04000AE
:202420000A073968AA7901EB421348BF40F080001872A979386800EB41120B2050723968B7
:20244000AA7901EB42100421A34A81721078012806D13968A87901EB40120121D17207E042
:20246000DBF824003968AA79407801EB4213D8723968A87901EB40121F2111763868AA79D4
:2024800000EB421100204876A8790EF067F8AA79396852018850AA7939685201885820B9E3
:2024A0000721284619F0A2F9F4E08C48AA79016801EB02101BF0F0FEA8793968874B01EB37
:2024C0004012196801EB00105060A979386800EB41125168C8F83C10AA7952018158C8F8A9
:2024E0004410042199F800000DF07CFA616D4A783068D10648BF022109D4A97900EB4112F9
:20250000137C03F00303022B14BF04210621B8F8042095F806C04FF4C8738A18698AAA61A2
:202520005143B1FBF3F35B1C6B6100EB4C10D5F800E0DEF80CC040F6C41101FB02C2D21AE5
:20254000A2F5A86282603068AA7900EB42139A682B689A6000F10C03AA7952010C309B5CC5
:2025600003F0EF038354A8793268400102F10C030C321B5C03F07F031354A8793268400114
:2025800002F10C030C321B5C03F0F00343F0020313543068AB7900EB4310427B02F0F00264
:2025A00042F0010242733068AA7900EB421398682A6810613868AA7998F802C000F1140316
:2025C00068694000520111FB0C0000F5F660985095F8960104280DD13868AA7900F1140353
:2025E0004FEA421C143053F80C20AB795B0102F56162C2503868AA7900F114034FEA421CDB
:2026000053F80C20C5F83421AA7900EB4210C37C03F0F00343F00403C374DBF830003A6896
:20262000AB79006802EB431CB8F8062042436423B2FBF3F35943A1F59661CCF81C10386894
:20264000A97900EB4110C27E02F0F00242F00402C2763068A97900EB4112286842600E212F
:2026600028461BF015FE1E49072008702046AA798AF8022017F01EFB1A488178880704D5B8
:20268000AA79002120461BF0FFFD28681649174A41618261BDE8F14F1BF0EABAD50F00201C
:2026A000780E0020D70F00208E0F0020900F00209C0E0020C70F0020980E002081010210D8
:2026C000C00C00209A0F00204DE50110CA0F0020FC090200980C0020CC0F0020A40E002071
:2026E000C80F0020200E0020B5DC0000020480802DE9FE4F04460020009080460CB918F00E
:2027000039FE04F1500A41F62300DAF800603080A6F80280022232737273694620460DF017
:2027200059FB08B9072041E2009901B1B060B0682061DFF87C04017884F8C010DAF8040054
:20274000407A16F0B3FB25302076207EB07386F80F80DAF80400017D022904BF002018F0E8
:2027600009FEDAF80400007D012802D10020002104E083280CBF062002202021307404F146
:2027800024077174314678790DF06CFDDAF80400417848060AD5607DC10604D5E07F40F093
:2027A0004000E07702E040F04000607506F1600504F1300085F804804FF01E09B97E8900B3
:2027C00001F0040129713067607DC10654D5DAF8042051788A060CD500F0FE006075DAF840
:2027E0000400417811F0030F03D1E07F00F0FE00E077607D1BF044FDA075421C307CC0F396
:202800008001002392B200F003001BF035FDA0831E20A18B01F59B7292FBF0F009FB10206F
:20282000C0B208B1C0F11E00411801F59B7161831E20A18B01F596718AB292FBF0F009FB4B
:202840001020A183C0B208B1C0F11E004018A08380B2E27D618B521E50434018608306F1FD
:202860003408608BB4308000B0660620E871E17F41F00801E17721E040F001006075DAF86D
:2028800004104A78510744BF40F002006075607D1BF0F6FCA0750023401C82B2307CC0F3FF
:2028A000800100F003001BF0E7FCA083A08B00F59670A083C6F8688085F80780A17D207DE5
:2028C00061F3050006F19001207508700322607D48708A704FF0000BB87E800000F0040062
:2028E00040F003008870FA7ED20002F00802104388700020C870C6F89800B88BC0F30B006D
:20290000B883DAF80410CA7D40EA0230B8830022617D01F0FE0120460CF018FD019617E0C3
:2029200004EB4B160199202206F164001AF0DEFB06F16C000521017106F16401A28B920017
:20294000026078790DF08EFC0BF101005FFA80FBE07D401E8345E3DB019E204610F0F8FF8F
:20296000E07D012809D014D3032809D03EBF04F164007060CAF818800BE0C6F8048008E078
:2029800004F16400706004F18401CAF81810CAF8388041F62400B0860021F18606F14008C8
:2029A000B068618B00EB8100F0630221822088F8000088F80110002194F8210088F803101D
:2029C00000F03F0088F80200DAF80400807D012818BF022803D100F07F00401E04E0832819
:2029E0000CBF06200220202188F8040088F80510DFF8C0B1DBF83C00416908687A7902EB19
:202A000082028118D1F80100A8F8060000207067DAF80410487810F0030F1FD01BF028FC5C
:202A20007067DBF818000078C107DBF8181009784CBF1F200F208A07DBF81810097848BF8B
:202A400040F020004A07DBF81810097848BF40F040000A0748BF40F080002876002068767E
:202A6000DAF80410544A897C01F003016976B87E800000F0040001436976F87EC00000F006
:202A80000800014341F010016976107828B1287E00F0FE0041F0400128766976E07F1BF07B
:202AA000EFFB84F8200020461BF0DEFBE07FC10636D5DAF8040094F820204178521C8807BD
:202AC0004EBFD21EF87F121898F80400C0F380010023D2B200F003001BF0CEFB38803888AA
:202AE00000F59670C0F11E0190FBF9F009FB001987F80490DAF804104878810739884CBF6D
:202B000000204FF49B70401838807880F06B39883A795218A63200EB8200F067022001E067
:202B20000020F067E87604F13000C6F8880006F18C00DAF804104A78510706D504F13802C8
:202B40000260687E40F0200006E01C490A6851680160687E00F0DF006876A17F94F82000A7
:202B600060F30501A17740F60B00A8F814000021A8F81610DBF8380000888000F065DBF8CD
:202B80003800008800B1072028700220687094F845106980DAF804004178880744BF0121FE
:202BA0006980009808B10CF0A1F90020BDE8FE8F944A0020FC090200880E00206C0F00209D
:202BC0002DE9F84305460C46480414D4A00025D4A0075FD4600500F18180200500F108816A
:202BE000200700F13D81600040F1F88013F0D0FA24F08044F2E01AF075FDDFF824140F6D78
:202C00003FB1D7E90A1202F0E04201F00A0189184BD01AF035FF24F48044DFE0BB48DFF869
:202C20000474016841F080010160B878012804D1042017F0C5FC0020B8701AF053FD064698
:202C4000B348406D016804208847DFF8E0130A68904219D12A7EBAB1FA68AAB1DFF8C0030E
:202C6000806C002800F09780C16840F603020988914206D0C06840F604010088884240F0B6
:202C80008A8005F1140088E040F6C4120860C5E9042284E008F064FEDFF88403006C0028C0
:202CA00040F09D8024F0020498E0D7E90A65D7E90A12AA43B143C7E90A121AF0E1FEB86874
:202CC0000028A8D056EA0500A5D0D7F808C03869B7F9301032462B46E0479CE71AF002FDD6
:202CE000054618F0B5FF002800F0B780CC48876B002F00F0B280DFF82C830420CC49002246
:202D000088F81800C6481AF080F81AF0DDFEC9481AF0ADFEC4480068006B8047C8F810006A
:202D20000125042088F8025017F07AFF386990F82810C8F80400490703D5436A04210022B6
:202D40009847012014F054FAD8F8040045760EF00BFDD8F8040081680B461A465B684BB15F
:202D60001E88A6F60306072EF7D805FA06F616F0830FF2D0537B03F0F003013353730023DE
:202D8000FD6853602D88A5F60305012D00F28A80C8F810309FE005F1100015F011FF304689
:202DA0001AF06EFE17F054FF78B12E6A28466FF4807100224FF00073B0479948806B10B168
:202DC00013F0E6F901E044F00204EE692846002100224FF08063B04724F0005434B19848A8
:202DE00021462830BDE8F8431AF024BFBDE8F8838C4EB078012804D1042017F0E1FB002000
:202E0000B07017F025FF38B170686FF4807100224FF00073056AA847306950B18248006854
:202E2000006B804732697168801A000BC860002030617B4D81490022284619F0E6FF02203C
:202E40003076286C20B17E48022128301AF0F2FE13F09EF924F40064C0E71AF035FE41E011
:202E60001AF040FC054618F0F3FEA0B1DFF8B48198F8000000070ED498F9000000280AD45B
:202E800068460EF05DFE08B1009820B1DFF8B49199F8610048B31AF017FE13F079F924F058
:202EA00008049BE7034633F8385FA5B190F8445090F8456005F0F00580F8445006F0F005F9
:202EC000013580F8455000255360C5634587507B00F0F000507358480022C261016001200E
:202EE00019F094F924F4806478E700260127602E10D009EB0600817A31B18772407A07FA9A
:202F000000F0C0B217F076FB2036F0E7CC2108408C010010032088F8180046481AF0A7FDE1
:202F20001AF0D2FD444F3E4D0022786900207861F968F8602846444919F067FF3A48006891
:202F4000006B8047D8F80C10D8F82020411A02EB1130B0EB113F38BF4FF0FF3098F82410A6
:202F6000C8F8200021B1D8F80810B0EBC12F20D919F05CF9B8B140F60900414621F83C0F42
:202F8000002048804A7B02F0F00201324A730A7B02F0F0020A734860F8613960B8F83E0042
:202FA00010F4406FFAD00020C8F82000012088F8240015F065FB2548002101600220002138
:202FC00019F024F9022017F0FBFA10200DF0BCFE98F8010020B9D8F8040050301AF026FEDA
:202FE0001B48807810B90D200DF0AEFE98F8250028B1002088F82500052017F0E1FA00205D
:2030000088F818001348C8F81C000220B5F85610B5F85420914208BF072012F067FA3CE744
:2030200080260020F82200208C010010182C00202DBC0100C444002000100440C9E100007F
:2030400098240020B8410020F5610100000004602C0F0200ADDB00002DE9F04F85B00D461E
:203060000295044615F8011BDFF858A48DF801100022DFF8541488788DF8002004F5A476C4
:203080001AF010FA01902C219DF80100DFF83C24032804F2191804F1660B04F1F40904F5CE
:2030A000C77700F0C880072800F0C8810F280CD0112800F03981182800F08F811A2800F0CA
:2030C0004A811B2800F07981D8E199F80910880703D40F2188F8001059E02878697800EBCA
:2030E00001223280A878E97800EB012272802879697900EB0122B280A879E97900EB012226
:20310000F280287A3072697AA87A01EB00227281E87A297B00EB0122B281687BA97B00EBBA
:203120000122F281E87B297C00EB01223282687CA97C00EB01227282E87C297D00EB01220C
:20314000B282687DA97D00EB0122DFF88403F28201788A0658BF1A2712D504F5AA70049061
:2031600071890391307A029021890191F0880090B3887288318820461BF072F8C8B11E27BA
:2031800099F80900410706D40F2088F8000020461BF062F806E13A460F2120461BF058F8A1
:2031A000F0880090B3887288A179384614F0A8FBFFE004F18600718881800023B288C280A0
:2031C0000222F188018102704380A18EC91DABF81E10628E8188B1EB520F02BFC188A28E85
:2031E000914202BF0089E18EB0EB111F21D09BF81000012804BF9BF811000F280CD09BF8AE
:20320000150000281CBF9BF811001A2804D00F218BF81A10FE2183E0FC2120461BF038F8BF
:20322000F0880090B38872883188A0791BF00CF8BFE0102174E099F80900C1070BD499F87A
:2032400000101A20012989F8010002D1FF220D213FE00D2164E000208BF800008BF8060099
:20326000012289F804202946082204F1B0001AF0E7FF0146022204F1B8001AF0E1FF04F161
:20328000A8070146082238461AF0DAFF0646082138461BF025F804F19C07042231463846DF
:2032A0001AF0CEFF042138461BF01AF804F1A0001AF0C2FF04F198001AF0BAFF8548018871
:2032C00041F08001018099F80000012805D1FF22042120461AF0A8FF6BE09BF811600F2E42
:2032E00018BF142E07D00E2E18BF0C2E03D01A2E18BF162E13D19BF8107020461AF090FF65
:20330000042120461AF0C4FF012F06D11A2E8BF81A6014BFFD21FB2102E0314600E004219E
:2033200020461AF0B5FF44E0287830761A286B78737659D11068A779431C4F430020D855F1
:20334000A379126811FB03F111440871A179707E0AF039FF2DE094F806C010682E7811FB46
:203360000CFC604400F1210506F01F032878B60930B16878F040C00702D5387A042805D1D0
:2033800020221A2120461AF063FF12E0EB701068A27911FB02F10144204681F82360002137
:2033A0001AF026FC28B99AF800004FF480410CF019FB01208DF8000064E0A67913684E4345
:2033C0003344D88808B900265E701068A27911FB02F1014400200871EBE7287869788842D4
:2033E00004BF084010F0070F48D19BF81100162805D13A7AA179134600200CF08DFA0220EF
:2034000038710121019841770123387A397BB870B28E1AF001FF318E814206D3B28E397B45
:20342000B87801231AF0F8FE0146B87A398040F04000B872012188F81F10BAE728780F2823
:2034400016D01A281AD1A07913684843184400234370A079126811FB00F15018037199F80B
:203460000B0000F0FB0089F80B001A20A1796FE799F8090000F0FD0089F80900204602990E
:203480001AF0C6FE9BF811001A2815D19BF8120017281CBF1028FC280ED19BF8106020462F
:2034A0001AF0BEFE012E03BF1A208BF81A00FB211A2120461AF0ECFE9DF8000005B0BDE8DE
:2034C000F08F00BFC70F0020780E00200C4A0020200E00209C0F00202DE9FE4F0546DFF8FE
:2034E0003004DFF830640278002A4CD0052A73D0062A00F08080072A18BF082A00F0F7803A
:203500000A2A00F0D881112A02D0132A70D0F6E1DFF80434187800211AF0D6FE04001EBF4E
:20352000606D407810F00C0F2DD0216DC0064CBF886C486F0622016801F10805A91C6846E1
:2035400019F0D4FD287800F00F0105291BD145096946C0F380101AF057FE002813D0316894
:2035600068461AF04DFE0746316804F138001AF047FE87420DD0606D4178C80604D440F2E2
:2035800001401AF039FEC0E1607B40F002006073BBE133681E2010FB07F698190622694623
:2035A000C01D19F0A3FD606D4178C806F0D5A17B0129EDD1DFF864038178480605D5E90719
:2035C00003D4206D41F20A4102E0206D41F2044141804183418698E11AF006FB0028FAD15F
:2035E00011F0CAFD012802D001201AF001FE8CE112F05FF989E1DFF8285328681AF0F4FDD0
:203600000400F7D020790328F4D1207A00F00F01072937D1C34800684169497A4A1E1142E9
:203620005ED0617A04F10A035A5C02F03F02252A56DBA17A8A09012A52D111F03F0F4FD0AC
:20364000007C19F03FFDE17ACA074CBF04F1110204F10B028B0748BF921D0B0748BF921C59
:20366000C90648BFD21C1621127852094A43AE498B180A31EB608A5A428699898186DA8985
:20368000C2862DE000F00F00082829D1A17A880926D129B3A3480168087C19F013FDE17AE1
:2036A000074688071CD5062201F001015143601800F10C01684619F019FD207AC009FF28C1
:2036C0000ED069461AF0A0FD50B1306800F10D0168461AF085FD18B90521384618F086F8E9
:2036E0002079032802D0002017F044FE03E1DFF83CB29BF802000024FF281BD019F0E2FC70
:20370000804608F16C09D9F804001AF06DFD2A460179032901D011000CD08368197801F0EB
:2037200003008D06009003D50124009818B9BFE01000FAD0E9E05D7803F1020A34B31AF8ED
:20374000010B7B4B01902C2098F806C01F6810FB0CFC67444FF0010E87F805E0002A1F68BC
:2037600098F806E007F11A0C019F10FB0EFE07F01F070CF80E7098F806701B6810FB07F0D4
:203780001844019BC3F38113C3761AD10098032808F217171AD0ADB199F8000068B108F1ED
:2037A000F4000278012A0DD1594B1A78072A04D0082A04BFC078012804D13D2179700120C4
:2037C0003870A2E05B4A1378012BFAD098F8940070B32D1FEDB253462A46404610F0F8F8E8
:2037E00000281EBF54490878002807D13D2179700120387030681AF0EFFC86E04F480168A4
:203800008847064698F80610DBF804204FF4D07041435018002280F8412108F59E70016811
:203820008079490810F00EFF45490A6830469047009803281ED043494869007882070DD513
:2038400098F894004A691178002814BF281D2846CA0748BFC01C1AF8000000E0812089F892
:2038600008002A460098C3B29BF80200514605F037FF1DE09AF800001CB11B2804BF022DDB
:2038800001251C2803D230490B5C9D4205D0B870072140461AF0FCFC0AE01D480178082984
:2038A0005146404602D11AF05BF901E0FFF7D4FBD9F8040020E0254C207830B3244D286852
:2038C0001AF092FC08B3017903291ED1017A8A0611D5807AE178C0F38112914202BF217948
:2038E00000F01F00814206D1A078002801BF607800280121A17028681AF06AFC05E00020E7
:2039000017F038FD86201AF0DBFCBDE8F78F00BFC80F0020680F0020D50F0020C00C00207C
:20392000BC0A0020540F0020E0070020780E00200C4A0020D20F0020994A0020442A002069
:20394000482A0020FC090200300D02008C490020AC0C00202DE9F04F0F46380589B018D5B5
:20396000DFF8E4532888FF280ED0C0B219F0AAFB040009D0A07916211AF026FC204619F09C
:2039800097FB20461AF01CFCFF20288087F40060D6E1F80504D512F052FE87F48070CFE171
:2039A000B80604D51AF0F4F887F02000C8E1F8070CD519F09FFD30B100218160DFF88C036C
:2039C000006800B1804787F00100B9E1380704D51AF0E0F887F00800B2E1F8060FD50021E6
:2039E00000220023069105920491039302910192009102201AF0E0FB87F01000A0E1B807A4
:203A00000FD500210023069105910491039302910191009101223C201AF0CEFB87F00200A5
:203A20008EE179074FF01E08C94EDFF828A340F1CD80C948002200210892079100781AF0F3
:203A400043FC0446C5488178FF2904BF002017F091FCA07A19F036FB05469AF8000095F87A
:203A60002E91002805F5947B69D0606D807A022818BF032807D130680D301AF099FB10B916
:203A80003068C11D0791594648461AF0BDFBA0B3606D807C3368002818BF012804D1194616
:203AA00058461AF0ADFB04E05A46494618461AF05FFCFF2843D018FB00F830684044062257
:203AC0005946C01D19F012FB306810F80810404400F1010BC01D41F0020908900622616D74
:203AE000C87A00F0010085F82E01606D00F10C0105F5947019F0FAFA21E0594648461AF0E9
:203B000053FBE0B130685A4649461AF031FCFF2815D018FB00F8306840440D301AF048FB0B
:203B200058B9306840440D301AF042FB002801BF30684044417F012901D149F0020905F1DA
:203B40002C004B46017806914289120905920122698C0491C0880899029140080390CDF852
:203B600000B0079801900020A9791AF025FBD5F89C017B498842A8790CBF002101211AF0C8
:203B80000FFB7848AB7902682C214B43134401221A73AB7904684B4323445A73AB79046809
:203BA0004B4323449A73AB7904684B432344DA73AB79006811FB03F101440020087407209D
:203BC000A9790FF07CFC87F00400B9E038060FD50021002306910591049103930291019155
:203BE000009101223B201AF0E7FA87F08000A7E0F8045DD55C4930680C680D301AF0D8FA55
:203C0000002844D13068C11D0D301AF0C5FA3EE0606D4178480704F13E0526D528780228FB
:203C20001EBF03286878012830D16978306804F138021AF09DFB8146B9F1FF0F15D030682C
:203C400018FB09F948440D301AF0B2FA68B930684844C11D0D301AF09FFA30684844C11DCB
:203C6000062204F1380019F041FA2878022818BF03280BD130680D301AF09AFA30B930680F
:203C8000C11D062204F1300019F030FA2468002CBED13648DAF8042000784FF4805115F07A
:203CA0008DF910B18E201AF073FA87F4805047E0B80505D519F034FD2D4901200860FEE771
:203CC000780504D51AF003F887F4806038E0780405D581201AF05CFA87F4804030E0B904B7
:203CE0002DD5244C206810B1002017F043FB4FF0FF3020600020204C0FF0A8FC216851F8B5
:203D0000202F684690471D494A6B086BC96A24681B4B019200900293ADF810106B46194A8B
:203D200019491A4803921A4A07922568194AA8471949086004F084FD87F4005000E0002044
:203D400009B0BDE8F08F00BFF6220020480F0020680F0020880E0020D70F0020780E00201F
:203D60004DE501100C4A00204C0F0020C70F00207C052043380F0020200F00201C22002021
:203D8000D5D40100E5D401007C490020A83B00201EFB0080944600201C0F00202DE9F84F9C
:203DA000DFF81054A9780024FF2904BF002017F0E1FAA87819F086F9054605F1680605F545
:203DC000C9773168086805F1900808B1EC8311E0B07B002804BFB07E00280BD198F800100B
:203DE000002904BF3878002804D1287F012804BF688CE8832989E88B4118491C69812846FD
:203E00001AF0C2F901281EBFDFF8AC030178012903D12989EC83491C69814FF6FF79B07E7F
:203E200001280DD1B28B698928891AF0A9F938B1298968894A1C93B298422FD0B08B23E0A1
:203E400098F8000001280FD1B8F80220698928891AF096F940B1298968894A1C93B29842A2
:203E60001CD0B8F802000FE03878012816D17A88698928891AF084F980B1298968894A1C8F
:203E800093B298420AD0788892B2904206D04844688180B21AF070F94844E8833878012853
:203EA0000FD128897988401C80B2884209DB7C793C71022038702346A979224600200BF0BA
:203EC0002BFD05F59A71087920B128890021401CE983688105F12E08B07E012812D12989C8
:203EE000B08B4B1C9BB298420CD168811AF044F98146B8F80410308C01FB0909284610F029
:203F000015F801E0B8F80490EA8BDFF8B0A2501C00FB09F040F6C41909FB00F100912B6845
:203F2000D3F80CE07144D9609AF80F30A449DB0703D5B5F812C000230EE00B885B1C1FFAB1
:203F400083FCBCF1010F03BF05F59A7EBEF806C00CF2DC5CB5F812C00CFB00FC4FF4C87E94
:203F6000BCFBFEFC0CF1010CC5F814C00B80A86185F82020DFF84CB2AB79DBF8000000F1E7
:203F800008025B01D1582A68116100F10801AB79D26868695B01121ACA50DBF80000AB79CC
:203FA00000F108025B01D1582A68916000F10C02A97949010C30535C03F0F00343F002038A
:203FC0004354DBF80010A8798A1C400100211152387908B917F0CEF9DBF80000AA7900F1B4
:203FE00010013879520140088854DBF80010A87901EB4012002151743879042812D1A8797F
:20400000DBF80010400101F110021031135C3A7A43EA82030B54DBF80000AA7900EB4211CF
:2040200020204874DBF80010A87901F112024001002111526449A8790A6802F114034FEA32
:20404000401C143253F80C00AB79D5F814C05B0100EB4C00D050B07E02280DD10A68AE7920
:2040600002F11403760114329859AB7998F800605B0119FB0600D0509AF80F00C20758D547
:20408000DBF80000AC7900F10803640108301A59AB795B01A2F5A862C250DBF80000AC79F1
:2040A00000F1080364011A592B689A600098121A1A610868AC7900F11403640114301A59A7
:2040C000AB795B0102F5F662C250387904280BD10868AC7900F11403640114301A59AB7969
:2040E0005B0102F56162C2500868AB7900F114025B01D058C5F83401344A106B0B68AC79F6
:20410000006803EB4416B8F8043043436424B3FBF4F409FB04F0A0F59660F0612C480378A4
:20412000012B30D10868A97900EB41120120D07230E0042C0BD10868AC7900F11403640101
:2041400014301A59AB795B0102F56162C25038790A68AC7904280CBF4FF4AA504FF4E66057
:2041600002F1140364011A59101AB8F8042009FB02F2A2F516729042BED30821284617F047
:2041800035FB012014E0506A0968AA79407801EB4213D872DBF80010A87901EB4012296876
:2041A0004A6007200B4A1070284611F01DF80020BDE8F28F780E0020D10F0020980C002025
:2041C000864A0020980E00209C0E0020FC090200CC0F0020C80F00202DE9F04FB3B002921A
:2041E0000CAF0D4606463C211C46384618F0A2FF07F128001D9007F11400CDE91B702046FF
:2042000018F016FD4FF0FF08002D0B9500F0F781002840F0F481B01E0A94022880F0B680FF
:204220000DF198093321484618F084FF1EA81E2118F080FF1D204946332219F03CFC8046BE
:2042400028B91EA950201E2219F035FC804609F1100500210DF16C0ACDF80C80B8F1000F59
:2042600040F01B81022900F2188115F8100C5AF8219008912B4620F07F0189F8001015F858
:20428000100C00F00F0089F8010015F80F2C89F8022013F8026D2A78A768069606F02006B3
:2042A000079202F02002012F0E4408BF561815F8031C15F809CC15F80E4C15F80DBC15F842
:2042C0000C8C15F80B2C012F049115F8011C059135F8081C099115F80A1C89F8006008BFB7
:2042E0002B461B7803F01003334489F800301EAE335C304489F80430837A89F80330007DDA
:2043000089F8050008010A9940EA023040EA1C1012F026FAA9F806004FEA0B1040EA04303E
:204320000A9C40EA181021460CF068FDC9F808000998214600BA000C0EF0AEFCC9F80C00B1
:20434000A068012810D1079A4FF4802102F00F0021FA00F042F2107148430599890041EA28
:20436000921118F010FF09E0049806992246800040EA911001F00F0111F024F90899DDF817
:204380000C80C9F810001135013167E7012E40F0DB8026A8112118F0CDFE0B984FF005097D
:2043A0004FF00008411D0091011D0330019109905FEA086040F0CD805FEA096100F0C98031
:2043C0001D2026A9112219F076FB9DF898109DF899200B9E9DF8A6A09DF89AB09DF89B8086
:2043E0009DF8A87001F00F05B27001F080017570A268012A524608BF3A4602F0200319440C
:2044000002F0100211443170C8BB49B2B1F1FF3F35DC9DF8A700099923469DF89E609DF8C4
:204420009D40012204909DF8A50003909DF8A10008909DF8A00007909DF89F0005909DF823
:204440009C00069005F15A0012F02AFF0146F8B90B9801990A9B012240785030C0B212F006
:204460001FFF0146A0B90B9800990A9B012240786430C0B212F014FF014648B96EE00146CA
:2044800030B90A984168826C42F21070904700210A9CA9F1010988468AE700214FF0000C59
:2044A000B8F1000F08D1032906D25AF82100013100780CEBD01CF3E70AF104010022B8F1C2
:2044C000000F27D1022A25D21346012B20D81D465AF82260013351F8257096F9004097F98D
:2044E0000000B4F1FF3F03DDB0F1FF3FEDDC0AE0B0F1FF3FE9DCB878B478001B10F1030F39
:2045000001D80328E1DB4AF8227041F82560DCE70132D4E74FF0000EB8F1000F0ED1BEF105
:20452000020F0BD85AF82E000B990EF1010E90E8F8000A461431F8C20B91EDE75FEA0C6071
:2045400008BF4FF0020853E04FF0000C4FF001084EE000283FD04FF0000C49E030010599DD
:2045600040EA04300A9C40EA1110214612F0F8F80B9E0699F0804FEA081040EA0B3040EAFB
:20458000111021460CF03AFCB060DDE9071040EA012021460EF080FBF060A06801280FD1E8
:2045A00007F00F004FF4802121FA00F042F2107148430499890041EA971118F0E4FD08E0FC
:2045C00003980AF00F012246800040EA9A1010F0F9FF0B9908610B9890F90000002859BF09
:2045E0004FF0000C4FF002084FF0010C4FF00008029810B180F800C001E04FF0FF084FFA91
:2046000088F033B0BDE8F08F2DE9F041FF2805462AD119F057F910F01F0F22D0042015F0C5
:20462000A3FE08B1042016E0012015F09DFE08B1012010E0022015F097FE08B102200AE0FA
:20464000102015F091FE08B1102004E0082015F08BFE20B10820BDE8F04116F085B916F0FA
:2046600089FE0020BDE8F08116F07EF95FEA000814BFD8F804400024012D46F2A81740F649
:20468000C4160BD0022D68D0042D00F0A780082D00F0F480102D00F03281E2E7012015F04E
:2046A00063FE00281EBFB648006800281CBF8788BF00102015F058FEF8B1102016F054F9A6
:2046C00005466E6846B9022015F04EFE20B1022016F04AF905466E68012015F045FE002859
:2046E00018BF002C07D0B068C11BA06817F0BEFE08B94046B6E72846B4E7022015F034FEDB
:20470000A0B1022016F030F906460120756815F02BFE002818BF002C06D0A868C11BA0688A
:2047200017F0A4FE0028E4D030469BE7042015F01BFE08B10420E5E7082015F015FE30B1F0
:20474000082016F011F9416800298BD1D1E7012015F00AFE002885D0CBE7022015F004FEB5
:2047600058B1884801688848CA69017801EB81015318DF88774307F51667042015F0F4FDEE
:2047800028B1042016F0F0F806460220BEE7082015F0EAFD80B1082016F0E6F805466E68A9
:2047A00046B9012015F0E0FD20B1012016F0DCF805466E68022090E7012015F0D5FD28B1A0
:2047C000012016F0D1F8064602209FE7102015F0CBFD08B11020B4E70220B9E7042015F089
:2047E000C3FD50B16948016869484A69017802EB01139F89774307F51667082015F0B4FDC7
:2048000080B1082016F0B0F805466E6846B9012015F0AAFD20B1012016F0A6F805466E68ED
:2048200004205AE7012015F09FFD28B1012016F09BF80646042069E7102015F095FD88B1FE
:20484000102016F091F805466E68002EE8D1022015F08AFD0028E3D0022016F085F8054618
:204860006E68DDE7022015F07FFD28B1022016F07BF80646042049E7042069E719F0AAF9C7
:2048800008B1D0F89470042015F06EFD28B1042016F06AF80646082038E7012015F064FD80
:2048A00060B1012016F060F80646082015F05CFD002818BF002C3FF437AF1AE7102015F01C
:2048C00053FD80B1102016F04FF805466E6846B9022015F049FD20B1022016F045F80546CC
:2048E0006E680820F9E6022015F03EFD28B1022016F03AF80646082008E7082028E7032089
:2049000019F06AF908B1D0F89C70022015F02CFD50B1022016F028F80646102015F024FD63
:20492000002818BF002CC6E7042015F01DFD28B1042016F019F806461020E7E6082015F0D2
:2049400013FD80B1082016F00FF805466E6846B9012015F009FD20B1012016F005F8054655
:204960006E681020B9E6012015F0FEFC28B1012015F0FAFF06461020C8E61020E8E600BF93
:20498000204A0020500F0020D80F0020540F0020D90F00202DE9F84F054605F14C0AE87D23
:2049A0009AF80010DAF8047081424FF00008C0F0938105F1280407F1980907F17B06C34604
:2049C00040F08C80A87F7075E97FB175DAF808205278930710D5EA7FD30604D5C01E7075E0
:2049E00001F0EF01B175C7F87CB086F800800022B17D01F0FE016AE1910608D4E08B00B1AD
:204A0000E07E3076E08B00B1206AC9F80000DAF808004178CA070DD5E08B00281CBF206AED
:204A2000002807D0C9F80000A17EE08B814238BF08463076E87FC1060CD5F86B217800EB88
:204A40008100F863F86BA98CA63100EB8100F867022002E0C7F87CB000203070DAF80800B7
:204A6000417811F0030F22D1007819F0B7F85FEA00081CD098F8B400032809D1E87F8106D3
:204A800015D440F02000E877B07D40F020000DE068B9E87F81060AD500F0DF00E877707D0B
:204AA000A0F112017175B07D00F0DF00B075E97F002201F0FC0128460AF048FCB8F1000F6F
:204AC00036D0E87F810633D598F8B40002282FD141462846BDE8F44F19F090B8E87F810650
:204AE0000AD500F0DF00E877707DA0F112017175B07D00F0DF00B075DAF808004178C807AF
:204B000017D5B07D717D00F0F700891E01F03F0182075CBF891D40F00200420644BF491EA1
:204B200000F0BF00B0757175C9F800B086F81880D2E09AF80020E87D121AD2B28907009299
:204B400040F18280012A07F144083FD1F86BA98C00EB8100F863A87F00F03F00A8777075EA
:204B6000E97FB175DAF8082053785A0703D5801F707501F0FD01B1750023707DE17E00F0B1
:204B80003F00421898F80000521CC0F3800192B200F0030019F070FB00F59B70A8841E2134
:204BA000A88C90FBF1F18AB2B17D01F0FE0128460AF0CCFB86F800B0E08B00B1E07E30767D
:204BC000E08B00B1206AC9F8000085E0F86BA98C022A00EB8100F86326D1E87FC10706D57D
:204BE000707D811F7175B07D00F0FE00B0750023707DE17E00F03F00421898F80000521C0C
:204C0000C0F3800192B200F0030019F035FB00F59B70A8840022B17D01F0FE0128460AF01C
:204C200095FB607FA8F81E00617F0098491C081AC0B201281CDDF96BAA8CA63201EB8201D3
:204C4000F9670221317014E0F86BA98C00EB8100F863617F0098081AE97FCA06C0B207D5BD
:204C6000F96BAA8CA63201EB8201F9670221317090B395F81F80A97FD9F80020E37E1A44E8
:204C8000C9F8002028F00108DAF808205278530748BF28F00208920748BF28F008080128DA
:204CA00007D1207F3076C7F87CB028F0100886F800B001F0C004404619F0E2FA00F03F003F
:204CC0002043707586F81680002208F0FC012846BDE8F84F0AF03ABBBDE8F18F2DE9FE4F90
:204CE0000422FF2101A818F0F7F9C54EB078FF284FF0000900F0828118F0E4F90546B078D8
:204D000018F0D0FB064605F217100178012908BF417800F0F78005F1740A05F592789AF8C2
:204D20000E00022808BF8AF80E9095F89201022808BF85F892919AF81C00022808BF8AF882
:204D40001C90B8F80E1019B198F80C000AF04AFE07200EF0BCFE6889AA4C288105F58D77C4
:204D6000A27AE079217B80184118E07A0818617B41180091B888401CB8803988009841186B
:204D80003980798851187980D8F80000C0B19E490B68A97903F10E0C49010E331CF801C0CC
:204DA00030F81CE00099714420F81C10A97949015B5C00EB4300B0F84A105218A0F84A207E
:204DC00016F04EF8E079002804BFE07A002805D1207B002804BF607B002843D0F07EA6F843
:204DE0000E90C009CB4610D0307F00F00701022907DA00F0F802401C00F007001043307771
:204E000003E0A879002118F0F1FE2989E88985F810904118287FA981012804BF688CE883C1
:204E2000A979012207200EF04AFB607870B1012129779AF80200002804BF9AF80E000028C1
:204E400004D19AF81C0008B9688CE88398F81400002860D0022804BFE07A002856D188F89D
:204E6000149058E0A979002207200EF028FBA5F81E90317F11F0070F02D1F07EC00903D0DB
:204E8000A879002118F0B2FEA07A38B1287F01284FF0010B24D1688CE88321E0F888401CC9
:204EA000F8804FF0020B287CD0B1584908686E69AB7995F82E7000F11402760040F6C4104B
:204EC0005B0110FB076606F5F666D6500968A87901EB4010C17C01F0F00141F00401C17429
:204EE000A8892989814206D088429ED2081A41F2AB02904299DA287C08B1052901D0082130
:204F000000E03E21284616F071FC77E0607A10B1022188F81410E07BC1070ED52069296898
:204F2000C86000F5B470C86038480168A87901F11402400142F8009015E03448AB790268EC
:204F400002F114015B01C858C8F810002E48AB79016801F108025B01D0582968C860A5F824
:204F60001E9085F81C902A4A50690078810702D5A07B802800D181208AF80000254991F8A8
:204F8000200018B12946012018F022FE28460BF013FD02281DD19AF80700022805DB01AA91
:204FA0001D49284611F05CFD8146284619F0E0F8012823D05FEA09000DD04A4601A92846BA
:204FC00012F0F2F938B928460BF0F6FC012802D114E0012812D00121284619F0C5F8FEF752
:204FE000DDFE01280AD0284612F07DF818F040FE009881B22A46584609F03AFDBDE8F78F74
:20500000780E0020980C0020980E00209C0E0020FC090200C0460020442C00202DE9F84F7C
:2050200005004ED0DFF8EC8298F80000092818BF0A2804D00B281CBF0C280D2801D12120E0
:2050400065E1A878002119F03FF9040008BF4220F6D0B14FA978DFF8C4A2397098F80000FE
:2050600010B9A8788AF8000004F14806F068417801F01201022902BF706900280C2012D072
:20508000607AF0B1A07B012804D1B5F8030008B1812816DA6878402813DA20460CF008FCDF
:2050A000B06808B9072032E1B561287801281FD1A07B00281CBF0128042819D19848007859
:2050C00008B9122023E197494A78824208BF0920F8D0F068417848070AD504F122018020C4
:2050E0004A7F04F1380107F061FE08B10B200EE1687808B911200AE12878DFF82C92DFF8C7
:205100002CB2012840F0B280002121737167217A012903D1B16968794871F7E011200EF046
:20512000D6FC012000212072E172617325460BF0D1FA6060DBF8000080477D4A0146106891
:2051400002E06A68426000680028FAD10846D9F8001088476968774848610021387818F08E
:205160002FFD3978012211200EF0A9F9F0684178C80605D5284601F0FBFE010024D0C6E0B2
:20518000688C18F073FD85F82100F068007818F025FD04001CBF94F8B400002807D0E87F86
:2051A00040F02000E877687D40F018006875284618F060FD0100E2D134B194F8B400012861
:2051C00004BF284618F016FDF0684178C8071CD505F14204A18800291CBF3068002814D0A5
:2051E00022788A4211D20F2018F0BAFF68B1F06801788DF800100F20A288ADF8012021783F
:205200008DF80310694618F0A7FF98F80000A0B94949087800281EBFF068417811F0030F75
:2052200003D04648006818F093FF112088F800000121297218F01CFD68E0284615F046FB80
:2052400000281CBFB168002960D0AA7B012A04D02A69808802EB800202E0486E2A698218E6
:2052600095F8C01010460CF033F84FE0207A00284CD0DBF80010884705463878012118F070
:205280009FFC00202E4920720A683E7811460B68187A002802BF586D0378B3421FD0C96888
:2052A0009142F4D138789AF80010884224D118F021F9616888421FD115F0D2FD40F2014059
:2052C00018F09AFF1F49204A20480860012110780AF088FBD9F800102846884716E01C4EE6
:2052E00030780128DEDD084615F006F818F02AF93078411E3170D5E7204618F025FFD9F8DF
:20530000001028468847204614F0D4FC0020BDE8F28F00BFC80F0020D60F0020D50F002001
:20532000D40F0020780E0020482A0020442A00204C0F0020D58F0000880E00206C0F002074
:20534000204A0020480F0020C70F00203DA00000964A00202DE9FE4FDFF81883D8F8046070
:205360001EB9BDE8F74F18F0EBBE3078DFF80893C24FDFF80CA3012818BF02280AD00428D9
:205380001CBF0828102805D0402818BF802800F0A08068E118F09CFA0028FAD0012014F000
:2053A000E3FF20B1012015F0DFFA14F0C1FF082014F0DAFF20B1082015F0D6FA14F0B8FFE9
:2053C0003078FFF721F905009AF8010014BF6C68002400284ED018F047FC17F073FE06465D
:2053E00030680090D0F804B0B0798AF80300BCB10099284618F036FC022811D029780129D7
:2054000002D0082963D02EE128B918F095FE00F5E8504C30A060012088F8020011211CE150
:205420000098017880290CD10820964938700A78DBF81400012A1ABFD9F824100978012111
:2054400013E007203870B07918F02CF80446207BC10748BFB0795DD48A480178DBF81400F5
:2054600001291CBFD9F824104978C172B0798AF80200BCE0002D11D02878AE420AD1012843
:2054800018BF082802D1002C03D1F1E0002015F071FFE3E0012802D0082816D0E3E0002C09
:2054A000F3D018F049FE0146A06801F5C241A83116F0DCFF28B918F03FFE00F5E8504C3009
:2054C000A060112038700121C0E0002CDDD00820C0E09AF80100002800F08B8018F0C4FB13
:2054E00017F0F0FD054628680090D0F804B09AF8020017F0E7FD0190A8798AF80300317872
:20550000402911D1A87917F0CDFF0446207BC1070AD5A87917F0D6FD052116F067F9207B9E
:2055200000F0FE002073A3E018F0CCF910F01F0F3AD0012014F018FF20B1012015F014FA21
:2055400014F0F6FE082014F00FFF20B1082015F00BFA14F0EDFE98F80200FFF755F8064606
:2055600074680CB3009918F07DFB02281CD03178012902D008290DD013E028B918F0DCFDF9
:2055800000F5E8504C30A06011203870012188F8021004E0082088F80200122139703046F5
:2055A0005DE0002015F0E6FE0198A8421FD0009934480A78802A0BD10821397000780128A3
:2055C000DBF814001ABFD9F82410097801210AE007223A7000780128DBF814000EBF01212F
:2055E000D9F824104978C172A8798AF80200009835E018F067F910F01F0F39D0012014F09C
:20560000B3FE20B1012015F0AFF914F091FE082014F0AAFE20B1082015F0A6F914F088FEAC
:2056200098F80200FEF7F0FF054628786C68012802D008280DD01BE0D4B118F07DFD00F536
:20564000E8504C30A06001211120387088F8021004E06CB188F80200122139702846BDE897
:20566000FE4F09F025BDBDE8FE4F002015F082BEBDE8F78FA4490020FC090200C80F002075
:20568000780E0020CC0F00202DE9F04F8FB0074618984FF0000C002A01938DF8200000F03A
:2056A00084810AA80E464FF0200A002400F1100ECDF800E0114611F8010B25280E910CD06A
:2056C000002800F06E81022EC0F00D81013E002F00F0088107F8010B05E15378901C0E9068
:2056E0002D2B07D14FF00109D01C8DF80D900E90937803E04FF000098DF80D90302B05D1FC
:205700000121069110F8011B0E9002E01946CDF818C04FF0FF322A29CDF808C004922CD14D
:20572000019D29680A1D2A60D1F80080CDF80880B8F1FF3F10F8011B0E9007DC4FF001091E
:20574000C8F100088DF80D90CDF808802E2925D1CDF810C0024612F8011B2A290E9220D1E5
:20576000019D29680A1D2A60096821EAE17BCDF810B0417802300E9027E04FF00008A1F183
:205780003002092AE0D810F8012B08EB880501EB4501A1F130080E901146F0E74FF0FF3BF7
:2057A00013E04FF0000BA1F1300009280AD812F8010B0BEB8B0501EB4501A1F1300B0E929C
:2057C0000146F0E71046CDF810B0302B41F0200306BFCDF81880424600226C2B06D10121C5
:2057E0008DF80C1010F8011B0E9001E08DF80CC0CDF81CE00AAB6929CDF814C0099301D006
:2058000064290DD1019B1868011D19606FF0090301689345C4BFCDF818B05A4670461EE05A
:2058200075290AD0A1F16F03092B5FD8DFE803F005876A6AA26A6A6A6A05019D2868031DCA
:205840002B600823782908BF1023752908BF0A23016870469345C4BFCDF818B05A460FF0BF
:205860001BFCDDF800E00990AEEB00000590A8EB00004FF0000CB9F1000F02901CD109E096
:20588000022E06D3013E1FB107F801AB029800E00027013401380290F2DA0DE00998022E1A
:2058A00007D3013E27B1007807F8010B099800E000270130013409900598411E0028059113
:2058C000ECD19DF80D0078B10298013802900BDB022E05D3013E17B107F801AB00E0002734
:2058E0000134F1E7002701340E9AE3E6632909D1019A1068011D11600168012005908DF822
:205900002810B4E70138022E0E9048D36FF0004086426FF0004038BF3046B34538BF0BF134
:20592000010004900EA9019A02AB06F061F9DDF800E09DF80D90DDF80880059897E7019A89
:2059400010231068011D11600821082206919DF820100029016870460FF09EFBDDF800E0C9
:20596000A0F101014FF04002099100F8012CAEEB01007BE7019A1068011D11609DF82010F1
:20598000006800290B49002808BF0846099017F045FE834538BF5846DDF800E066E7002083
:2059A00065E70FB100203870A44660460FB0BDE8F08F00BFBCF601002DE9F84306460D463E
:2059C000707801071DD4D6F80310B84821F07F41203981423FBFD6F8061021F07F4120390C
:2059E000814228BF112033D2B01DF11C88425CD3B07A002818BF012803D0022818BF0328A3
:205A000053D1B07C002818BF012803D0022818BF03284AD1307D012818BF022803D083289F
:205A200018BF032841D1707A10F0070070723CD03078012118F048FC04000AD1002018F056
:205A400077FB044618F070FB844214BF07200D2029E104F1540100200E606072227A012AAF
:205A600008BF0C20F4D0E075727A012383401A4208D0E27D521CD3B2012B04BF00F12507B5
:205A80002776E275401C0328EEDB7078C20619D5317D012909D1102811D012280CD0132808
:205AA00004D0152804D01D2804D09DE0002007E0042102E0012003E00221A1735EE00320C1
:205AC000A0735BE0FF22A273307D02281EBF727802F00300032808D01307E6D408B1900689
:205AE000E3D4520707D516F10C007DD0F07A002818BF012878D100206075E077707810F04B
:205B0000030F25D1207D00F03F0020757078820605D44868002804BF8868002801D0182116
:205B20006175707881060CD4307D832818BF032803D101211820E17702E0607D40F0010070
:205B400060757078410715D5E07F40F0020010E0217DC0074CBF4020802001F03F010843E9
:205B60002075092118206075E1777078410701D50B20E077207D00F0C000A07796F9130073
:205B80007F2806BF4A4800780FF052F804F12907387045B14749C86B416908683A7802EB07
:205BA0008202805C2870B07ADFF80C81DFF80C91434D002818BF012809D17875B07AC1077A
:205BC00058BFC8460622414604F1300032E028680D3018F0EDFAB8B1B07AC10754BF494601
:205BE000414618F0E1FA08B912205CE0B07AC10754BF49464146062204F1300017F076FA2D
:205C0000B07A00F0010007E02868C11D062204F1300017F06BFA032078752968B07A00F0A0
:205C200001000870B07AC107286858BFC84606224146401C17F05AFA7078410730D5B07A7F
:205C4000022818BF032822D1F17A286806F10C0201F0010118F08CFB8046B8F1FF0F16D040
:205C60001E20296810FB08F8414401F10D0018F09FFA60B928684044C11D0D3018F08CFA4F
:205C80000120B875062229684144C91D04E0F07AB875062206F10C0104F1380017F026FA97
:205CA000012060720020BDE8F28300BFE1B70B00CA0F0020FC090200480E0020400E002071
:205CC000680F00202DE9F04F89B0A94E0546A94F30780328387040F0B7800020307038701B
:205CE00002AC204617F00EFF2046002116F078FCA14CB8602E21204617F01CFA4FF0FF3036
:205D0000A0822061E06015F001FA0020294612F0DBFC07F11001F86017F0C1FED7E905123A
:205D2000964DB1FBF2F0C0B2022828BF022020702870B2F5005F40F08580B1EB403FC0F01F
:205D40008180F96800297DD04FF6FF7100274FF6FC784FF0885B618089496160874276D22F
:205D6000FEB2002108AA0423304617F0D3FA07EB470004EB80090898CA4600F47C012AF83B
:205D8000160FB1F5402F04D000F07F41B1F1164F47D1C0F3014189F819106FF0FD0151FADF
:205DA00080F1022902D3C1B27E2903D11021A9F81C1036E003A814F033F9304600214FF0BF
:205DC00088524FF400534FF088544FF4005517F0A1FA4DB1043D05EA080000F1885450F8B3
:205DE0000B00411CF5D001E02068002501210126CAB2042A06D8C2B2FF2A18BF0E4601311D
:205E0000000AF5E7206060480399006842685F48904755FA86F0584C584DA9F81C009AF8EB
:205E20000000C0B2702807D0782803D0FE2805D07C2804D1E77002E0277100E0A770287832
:205E400001378BE70120307009B0BDE8F08FE178FF2904D0DFF81C81254601242BE02179FC
:205E6000FF2905D0DFF80C81E1702546022422E0A178DFF80081FF290ED00131B1FBF0F2A6
:205E800002FB101000EB400104EB8101898B09B1E070EAE7FF20A070254600240020EC701F
:205EA0000CF002FA98F8001008437E2188F80000002014F06BFBA878FF2813D12F48E97853
:205EC00000780131B1FBF0F202FB1010A8700CF0EBF998F800100843FE2188F80000A878CB
:205EE00014F054FB2748EA78022C047002EB42006A7005EB8000818BE9802AD0012C2ED1C8
:205F00001D4F03AD002488B2182828D30739D0B22A4689B20DF016FB9DF81700400718D571
:205F2000F888BDF81A10FE782A4603230094401A073881B2304606F019FEFA7820B99642F0
:205F400002D1BDF8181069B9964208D00A48C188D9E7094901204871002000F0D5FA98F8C9
:205F6000000071E79DF81C0012F078F9F7E700BF3D2A0020BC28002064460020A24A0020A7
:205F8000FF000020A34A0020D8010010004003402DE9FE4F074608680024B0B1D7E9018A79
:205FA0000E4617F09FFB8146D8F8E800082888BF0124B068204202D17068204208D003204F
:205FC0003074484617F05CFD00242046BDE8FE8FD8F8C01069B198F8F8100029EFD0062112
:205FE0003174D8F8C410C8F8C4604E6198F8FC100DE000210522C8E93066C8E93411C8E906
:20600000361198F8FC10002908BF0122327400220129726109D102204FF4E02188F8FC0009
:2060200098F8FB0014F0B4FD706889490138884205D8042014F0F4FD062014F0F1FD022043
:2060400014F0EEFD98F8F80040B9DAF83C003168814203D298F8FC0000286CD0D8E936109A
:2060600009B118B900E028B317F0D3FCDAF80000416941F001014161484617F001FD98F890
:20608000F80008B10124A0E708F16C05D8F8EC10284617F094FC0028F4D0D8F8C0000321C8
:2060A0000174384606F0D0FC28460021002417F086FC8AE79AF8040017F056FD654CDAF80B
:2060C00010100222206991FAA1F1B1FA81F14368D8F8CC004068006898472069DAF8141004
:2060E00002224368D8F8CC0091FAA1F1B1FA81F14068006898479AF8040015F0C7FF9AF819
:20610000040017F033FD17F084FC0020C8F8E000D8F8C0000068B0F5806F01D917F079FC1B
:2061200098F8FE000028A1D1DAF80000416841F0020141609AE798F8F90020B1D8F8EC0050
:2061400001307FF48BAF484617F09AFCB2683AB1D8F8E8000221092838BF0121009103E098
:2061600008F1F40200200090746834B1D8F8E8000227092838BF012702E008F1F604002792
:20618000DAF80000334D416841F002014160D6F800B0D946BBF1000F40D0D8F8E80001927C
:2061A00009284FF0010011D22A68B9F1000F1FD0C0071DD02178DAF8000092689047002839
:2061C0001EBF3C44A9F101090120EDE72A68B9F1000F16D0C00714D02188DAF80000926878
:2061E000904700281EBF3C44A9F101090120EDE7DAF80000D26802A99047DDE901201070B5
:2062000007E0DAF80000D26802A99047DDE9012010800098ABF1010B0244BBE7D8F8F000AA
:20622000DAF80010CA680240102802D1002AF9D101E0002AF6D0706815F052FDD8F8C0106C
:206240000020C8F8C400C8F8C00008741AE700BFFEFFFF0FC4010010F8B5144600254FF48F
:206260008067DFF89862C21B84B006F1880337D0921E3CD0521E44D0521E4AD0521E50D072
:20628000521E54D0521E00F07A80921E00F07C80D21E00F0AC80521E00F0B780921E00F031
:2062A000C080521E00F07B80521E00F0C180521E00F0CF80521E00F0D280521E3ED0521E53
:2062C00056D0521E4BD0921E00F0DE80921E00F0E280521E00F0ED80521E00F0F98000E186
:2062E00001290FD12078022817DC707003E1012908D12078022810DA0028B070F6D1B07439
:20630000E3E0012940F0EB802078052805DAF070F1E001296CD12078022880F2E080707342
:20632000E9E0102964D110222146754814E001295ED12078022863DA3071DCE0012957D1D5
:20634000207802285CDA00287071F6D00120F074602206F12801184616F0C8FECBE0012950
:20636000FCD12078022802DAB07117F0CBF8C2E001293DD12078022842DAF072BBE00129E8
:2063800036D12078F073B6E0002931D117F0ACFF10B9FAF716FF1DE00120F075ABE007297B
:2063A00026D10622611C02A816F0DEFC00950023217801AA02A80AF05BFBB0B9F07A10B925
:2063C00017F092FF10B1F07A012808D19DF80400FAF708FF0546502016F098F81EE0716A3D
:2063E0009DF804200120885485E0342583E0012975D1717C2078022903D0C11F0A2902D3EB
:206400006DE010286BD1307475E0012967D1B17D2078B075002908BF01286CD1FAF75AFED6
:2064200069E001295BD12078032858DC307562E0012954D12078022851DC00284FD0707476
:20644000022803BF102030740120002017F068FE51E0012943D1207816F088FA4BE070792B
:2064600000283CD1602908D1002C38D060222146184616F03BFE012004E001292FD1002C70
:206480002DD02078F07436E0012928D13CB320781C4908702FE011BB17F026FF30B9FAF785
:2064A00036FF0546502016F031F824E00120307621E0012913D12178022910DA012904BF48
:2064C000B078002816D0B174084617F023F812E0012904D120780228B8BF70750BDB1825BF
:2064E00009E00F2806DA022904D1218812F0EEFF054600E00225284605B0F0BD041E0020A0
:20650000B84700209D4A00202DE9F04F97B0DFF888820546D8F8040018B18047002800F011
:20652000DB809E4F01200021042300247E78F87397F8029008AA304616F0ECFE9DF8220035
:20654000800703D07879002800F0C78030460621F8220595F82516F0FFF806EB460407EBF9
:20656000840005769DF82000702803D03046702114F00CF8069608AA4846002104230025A4
:2065800016F0C8FE9DF82000FE2803D04846FE2113F0FCFF48460621FE22FE2616F0DCF803
:2065A00007F11600BA7888F8005000EB8401C9880292798209EB4901049100EB810101F842
:2065C000026F7E78039106EB460100EB8101B1F806A002EB420100EB810030F8061F07914B
:2065E00001900EA813F01CFD0FAD1FFA8AF0172861D398F80000002868D1AAF1070B304662
:2066000009AA1FFA8BF739460CF09CFF9DF82E0096281DD1BDF8324004F11000B84217D892
:206620009DF82F00C10743D1800741D5ABEB04004F46C1469DF82D20214633461FFA80F894
:2066400040460FF097F800B3C846AAF1080BB9465C46A0B216282FD93628A4F116073046F8
:206660002A4688BF2027E41BBBB2A1B216F052FE3804EED015FA87F010F8010C962801D0E3
:20668000013FF5E707EB040AAFE7E01DDDF81CA0454983B2009013FA8AF00A1A30464146BF
:2066A00016F038FE0098C846B9468244CDF81CA0ABEB040A99E7D34698F80010384D3948CF
:2066C000364E71B129684A680E9904E034480E990068426833489047002420B217B0BDE85D
:2066E000F08F079C029F8246C4F50052A4F1100138468BB2C1F20012102113F0ADFC98F871
:20670000001008430E9988F8000028684268504690470198B6F91220717B0123A6F814B064
:2067200034820480384614F0DBFCB6F91420B17B3846022314F0D4FC059A002A08BF10227E
:20674000308A7C21C0F5005090424846B8BF782113F01CFF069D28460BF0A6FD88F8000020
:2067600048460621FC22FC2415F0F6FF0398FE21B57086F8039086F801900470049806EB2C
:206780008000808BF080284613F000FF00207071F088C0F50054A0E7BC28002064460020B7
:2067A000D801001000400340002000112DE9F04F8DB0044600209A4616460F46CDE90B00EE
:2067C000CDE909008748856880460FF077F91C2803D00FF073F91B281BD1308840F6020167
:2067E000884218BFB0F5C15F03D1F07B022810D93EE043F6070188420BD196F824000328FF
:2068000007D33069784940F0806020F0604088422ED100206FB366B3387825FA00F0C007DA
:2068200026D03046002117F0EDF97048C4E90176006880B109A800900CA90BAA0AAB304693
:2068400006F07CFD0B980B214FF6FF72502315F05DFCFF280CD016F045FF654F0646787836
:20686000012802D840B1012070E0304617F008F900200DB0BDE8F08F06F0D4FC5D480DF1CB
:206880000409016841F0020101605B48C8F80000484616F09FFDDFF864B15A494A469BF8A8
:2068A00001009BF8005003905548283013F0D6FE554856494A4613F0D1FE484616F002FD64
:2068C000DFF84C81534A19214B460295404612F07BFF514A08F11C001A214B4612F074FF22
:2068E0004E484F4917F099F84E484F4917F095F84E48006810F4402F06D04D4A07F1280012
:206900000421002315F06EF99BF8020010B10D200AF028FB08F1400016F082FA08F1380037
